S01A00006C6162365F49616E6E5F4772696A616C76612E7372656331
S11300000C9434000C9451000C9451000C94510045
S11300100C9451000C9451000C9451000C94510018
S11300200C9451000C9451000C9451000C94510008
S11300300C9451000C9451000C9451000C945100F8
S11300400C9451000C9451000C943B010C945100FD
S11300500C9451000C9451000C9451000C945100D8
S11300600C9451000C94510011241FBECFEFD8E022
S1130070DEBFCDBF12E0A0E0B1E0ECE6F9E002C0E3
S113008005900D92A434B107D9F722E0A4E4B2E0BC
S113009001C01D92AA38B207E1F70E94B4000C9483
S11300A0B4040C9400001092C50087E68093C40049
S11300B088E98093C10086E08093C20008959091FE
S11300C0C00095FFFCCF8093C6000895CF93DF93C3
S11300D0EC0103C00E945F00219688818111FACF50
S11300E0DF91CF9108959BB1282F30E0220F331F69
S11300F0220F331F220F331F9770292B2BB995B171
S1130100987F829586958770892B85B9089580E4B8
S113011080937C0087E880937A000895ECE7F0E010
S11301209081907F8F70892B8083EAE7F0E0808153
S11301308064808380917A0086FDFCCF8091780072
S113014090917900089580E091E00E94660081E238
S113015091E00E94660083E391E00E9466008BE4D4
S113016091E00E9466000895CF93DF93CDB7DEB788
S11301702A970FB6F894DEBF0FBECDBF8AB1886F41
S11301808AB984B1876084B90E9453000E948700B1
S1130190789483E691E00E9466000E94A300809117
S11301A047028230E1F5809144028823C1F186E060
S11301B00E948E00909346028093450280914502EE
S11301C0909146029F938F9382E991E09F938F933E
S11301D08E010F5F1F4F1F930F930E94CA0185E981
S11301E091E00E946600C8010E94660081E492E0EA
S11301F00E94660080914502909146020E9473001D
S11302002FEF89E698E1215080409040E1F700C04B
S113021000000F900F900F900F900F900F9080910F
S11302204802882309F4BBCF80914702813021F032
S1130230809147028230D1F480914A028D3461F07A
S113024080914A028D3641F080914A028C3421F02B
S113025080914A028C3651F480914B02811106C080
S113026010924702109244020E94A3001092490285
S11302701092480294CF1F920F920FB60F9211243E
S11302802F933F934F935F936F937F938F939F939A
S1130290AF93BF93CF93EF93FF93C091C6008C2F7E
S11302A00E945F008091470281111FC0C13361F435
S11302B081E0809347028FEA91E00E9466008EEC11
S11302C091E00E94660033C0C23389F582E08093D6
S11302D0470281E0809344028CEF91E00E94660023
S11302E081E292E00E94660022C080914702813040
S11302F081F48C2F0E947300C13321F0CC3411F0AF
S1130300CC36A9F410924702109244020E94A30032
S11303100EC080914702823051F4CC3411F0CC36B7
S113032031F410924702109244020E94A300CD308F
S113033011F0CA3079F4CD3019F48AE00E945F00DC
S1130340E0914902F0E0E65BFD4F108281E080938A
S113035048020EC0809149028F3350F4E091490263
S113036081E08E0F80934902F0E0E65BFD4FC0838D
S1130370FF91EF91CF91BF91AF919F918F917F9119
S11303806F915F914F913F912F910F900FBE0F90FE
S11303901F901895AEE0B0E0E0EDF1E00C948B0412
S11303A00D891E8986E08C831A8309838FEF9FE76A
S11303B09E838D83AE01475E5F4F6F89788DCE013A
S11303C001960E94EC01EF81F885E00FF11F108285
S11303D02E96E4E00C94A704ABE0B0E0E2EFF1E089
S11303E00C947D046C017B018A01FC011782168246
S11303F0838181FFCCC1CE0101963C01F60193813A
S1130400F70193FD859193FF81917F01882309F47E
S1130410BAC1853239F493FD859193FF81917F01AF
S1130420853229F4B60190E00E94E303E7CF912CD2
S1130430212C312CFFE1F315D8F08B3279F038F40C
S1130440803279F08332A1F4232D20611DC08D32D6
S113045061F0803369F4232D216016C0832D8260FE
S1130460382EE32DE4603E2E2AC0F32DF8601DC023
S113047037FC2DC020ED280F2A3040F08E32B9F41D
S113048036FC81C1232D2064322E19C036FE06C0ED
S11304908AE0989E200D1124922E11C0EAE02E9E2F
S11304A0200D1124222EF32DF0623F2E08C08C362D
S11304B021F4832D8068382E02C0883641F4F70178
S11304C093FD859193FF81917F018111B3CF982F83
S11304D09F7D9554933028F40C5F1F4F9FE39983BD
S11304E00DC0833631F0833771F0833509F059C07C
S11304F021C0F801808189830E5F1F4F8824839473
S1130500912C530113C02801F2E04F0E511CF80145
S1130510A080B18036FE03C0692D70E002C06FEF89
S11305207FEFC5010E94D8034C018201F32DFF77B0
S11305303F2E16C0280122E0420E511CF801A08073
S1130540B18036FE03C0692D70E002C06FEF7FEF0B
S1130550C5010E94CD034C01F32DF0683F2E8201AA
S113056033FC1BC0822D90E088169906B0F4B601C6
S113057080E290E00E94E3032A94F4CFF50137FC73
S1130580859137FE81915F01B60190E00E94E303FB
S113059021102A9421E0821A91088114910471F7A0
S11305A0E8C0843611F0893641F5F80137FE07C0FA
S11305B060817181828193810C5F1F4F08C06081CB
S11305C07181072E000C880B990B0E5F1F4FF32DC2
S11305D0FF763F2E97FF09C09095809570956195A1
S11305E07F4F8F4F9F4FF0683F2E2AE030E0A301EA
S11305F00E941F04882E861845C0853731F4232DA8
S11306002F7EB22E2AE030E025C0932D997FB92E9B
S11306108F36C1F018F4883579F0B5C0803719F0F9
S1130620883721F0B0C0E92FE061BE2EB4FE0DC0C2
S1130630FB2DF460BF2E09C034FE0AC0292F2660AA
S1130640B22E06C028E030E005C020E130E002C050
S113065020E132E0F801B7FE07C060817181828138
S113066093810C5F1F4F06C06081718180E090E030
S11306700E5F1F4FA3010E941F04882E8618FB2DB6
S1130680FF773F2E36FE0DC0232D2E7FA22E891418
S113069058F434FE0BC032FC09C0832D8E7EA82E84
S11306A005C0B82CA32C03C0B82C01C0B92CA4FEDF
S11306B00FC0FE01E80DF11D8081803321F49A2DD5
S11306C0997EA92E09C0A2FE06C0B394B39404C0B7
S11306D08A2D867809F0B394A3FC11C0A0FE06C04D
S11306E0B21488F4280C922C9B180EC0B21460F437
S11306F0B60180E290E00E94E303B394F7CFB21412
S113070018F42B1802C0982C212CA4FE10C0B6019A
S113071080E390E00E94E303A2FE17C0A1FC03C0A3
S113072088E790E002C088E590E0B6010CC08A2D0D
S1130730867859F0A1FE02C08BE201C080E2A7FCDA
S11307408DE2B60190E00E94E303891438F4B60107
S113075080E390E00E94E3039A94F7CF8A94F30134
S1130760E80DF11D8081B60190E00E94E303811041
S1130770F5CF222009F442CEB60180E290E00E9437
S1130780E3032A94F6CFF6018681978102C08FEFA6
S11307909FEF2B96E2E10C949904FC0105906150C3
S11307A070400110D8F7809590958E0F9F1F089583
S11307B0FC016150704001900110D8F7809590952C
S11307C08E0F9F1F08950F931F93CF93DF93FB0109
S11307D0238121FD03C08FEF9FEF2CC022FF16C0A1
S11307E046815781248135814217530744F4A081FF
S11307F0B1819D012F5F3F4F318320838C932681EC
S113080037812F5F3F4F3783268314C08B01EC0160
S1130810FB010084F185E02D0995892BE1F6D801CF
S113082016968D919C911797019617969C938E938B
S11308301697CE01DF91CF911F910F910895FA0180
S1130840AA27283051F1203181F1E8946F936E7F0B
S11308506E5F7F4F8F4F9F4FAF4FB1E03ED0B4E0FC
S11308603CD0670F781F891F9A1FA11D680F791F3D
S11308708A1F911DA11D6A0F711D811D911DA11D4E
S113088020D009F468943F912AE0269F112430195E
S1130890305D3193DEF6CF010895462F4770405DF9
S11308A04193B3E00FD0C9F7F6CF462F4F70405DA8
S11308B04A3318F0495D31FD4052419302D0A9F703
S11308C0EACFB4E0A6959795879577956795BA95FD
S11308D0C9F700976105710508959B01AC010A2EC3
S11308E006945795479537952795BA95C9F7620F9A
S11308F0731F841F951FA01D08952F923F924F923E
S11309005F926F927F928F929F92AF92BF92CF929B
S1130910DF92EF92FF920F931F93CF93DF93CDB7A4
S1130920DEB7CA1BDB0B0FB6F894DEBF0FBECDBF1C
S113093009942A88398848885F846E847D848C84ED
S11309409B84AA84B984C884DF80EE80FD800C81F6
S11309501B81AA81B981CE0FD11D0FB6F894DEBFD9
S10F09600FBECDBFED010895F894FFCF49
S113096C0D0A2D2D2D2D2D2D204D454E552050523B
S113097C494E434950414C202D2D2D2D2D2D0D0A22
S113098C00312E20456E76696172204153434949EA
S113099C0D0A00322E204C65657220506F74656E02
S11309AC63696F6D6574726F0D0A0053656C6563D2
S11309BC63696F6E6520756E61206F7063696F6E0D
S11309CC3A20000D0A2D2D2D204269656E76656E38
S11309DC69646F20616C204C4142202336204961AC
S11309EC6E6E204772696A616C7661202D2D2D0D17
S11309FC0A0025640056616C6F722064656C20508B
S1130A0C6F74656E63696F6D6574726F3A20000D57
S1130A1C0A4D6F646F20456E7669617220415343B1
S1130A2C494920616374697661646F0D0A00496EEB
S1130A3C6772657365206361726163746572657353
S1130A4C20284D207061726120766F6C766572205F
S1130A5C616C206D656E75293A0D0A000D0A4D6F97
S1130A6C646F204C65657220506F74656E63696F9A
S1130A7C6D6574726F20616374697661646F0D0ABD
S1130A8C002850726573696F6E65204D2070617219
S1130A9C6120766F6C76657220616C206D656E7565
S1070AAC290D0A0002
S9030000FC
